{
  "_format": "hh-sol-artifact-1",
  "contractName": "ServiceMarketplace",
  "sourceName": "contracts/ServiceMarketplace.sol",
  "abi": [
    {
      "inputs": [],
      "stateMutability": "nonpayable",
      "type": "constructor"
    },
    {
      "inputs": [],
      "name": "admin",
      "outputs": [
        {
          "internalType": "address",
          "name": "",
          "type": "address"
        }
      ],
      "stateMutability": "view",
      "type": "function"
    },
    {
      "inputs": [
        {
          "internalType": "uint256",
          "name": "id",
          "type": "uint256"
        },
        {
          "internalType": "bool",
          "name": "refundToClient",
          "type": "bool"
        }
      ],
      "name": "adminResolve",
      "outputs": [],
      "stateMutability": "nonpayable",
      "type": "function"
    },
    {
      "inputs": [
        {
          "internalType": "uint256",
          "name": "id",
          "type": "uint256"
        }
      ],
      "name": "applyForService",
      "outputs": [],
      "stateMutability": "nonpayable",
      "type": "function"
    },
    {
      "inputs": [
        {
          "internalType": "uint256",
          "name": "id",
          "type": "uint256"
        }
      ],
      "name": "approveService",
      "outputs": [],
      "stateMutability": "nonpayable",
      "type": "function"
    },
    {
      "inputs": [
        {
          "internalType": "uint256",
          "name": "id",
          "type": "uint256"
        },
        {
          "internalType": "address",
          "name": "provider",
          "type": "address"
        }
      ],
      "name": "assignProvider",
      "outputs": [],
      "stateMutability": "nonpayable",
      "type": "function"
    },
    {
      "inputs": [
        {
          "internalType": "string",
          "name": "description",
          "type": "string"
        }
      ],
      "name": "createService",
      "outputs": [],
      "stateMutability": "payable",
      "type": "function"
    },
    {
      "inputs": [
        {
          "internalType": "uint256",
          "name": "id",
          "type": "uint256"
        }
      ],
      "name": "getApplicants",
      "outputs": [
        {
          "internalType": "address[]",
          "name": "",
          "type": "address[]"
        }
      ],
      "stateMutability": "view",
      "type": "function"
    },
    {
      "inputs": [
        {
          "internalType": "uint256",
          "name": "id",
          "type": "uint256"
        }
      ],
      "name": "markDelivered",
      "outputs": [],
      "stateMutability": "nonpayable",
      "type": "function"
    },
    {
      "inputs": [
        {
          "internalType": "uint256",
          "name": "id",
          "type": "uint256"
        }
      ],
      "name": "raiseDispute",
      "outputs": [],
      "stateMutability": "nonpayable",
      "type": "function"
    },
    {
      "inputs": [],
      "name": "serviceCount",
      "outputs": [
        {
          "internalType": "uint256",
          "name": "",
          "type": "uint256"
        }
      ],
      "stateMutability": "view",
      "type": "function"
    },
    {
      "inputs": [
        {
          "internalType": "uint256",
          "name": "",
          "type": "uint256"
        }
      ],
      "name": "services",
      "outputs": [
        {
          "internalType": "address",
          "name": "client",
          "type": "address"
        },
        {
          "internalType": "address",
          "name": "provider",
          "type": "address"
        },
        {
          "internalType": "string",
          "name": "description",
          "type": "string"
        },
        {
          "internalType": "uint256",
          "name": "amount",
          "type": "uint256"
        },
        {
          "internalType": "enum ServiceMarketplace.Status",
          "name": "status",
          "type": "uint8"
        }
      ],
      "stateMutability": "view",
      "type": "function"
    }
  ],
  "bytecode": "0x608060405234801561001057600080fd5b50336000806101000a81548173ffffffffffffffffffffffffffffffffffffffff021916908373ffffffffffffffffffffffffffffffffffffffff160217905550611eb8806100606000396000f3fe60806040526004361061009c5760003560e01c8063ae7c18df11610064578063ae7c18df14610177578063b1a025ed146101a0578063c22c4f43146101c9578063c641fc1d1461020a578063eb826a5f14610233578063f851a4401461025c5761009c565b806306237526146100a157806321c8bafe146100cc57806352578012146100f55780636cf5d86e14610111578063a5c1674e1461014e575b600080fd5b3480156100ad57600080fd5b506100b6610287565b6040516100c391906110d3565b60405180910390f35b3480156100d857600080fd5b506100f360048036038101906100ee919061112e565b61028d565b005b61010f600480360381019061010a91906112a1565b610462565b005b34801561011d57600080fd5b506101386004803603810190610133919061112e565b610558565b60405161014591906113da565b60405180910390f35b34801561015a57600080fd5b506101756004803603810190610170919061112e565b6105fc565b005b34801561018357600080fd5b5061019e60048036038101906101999190611434565b610762565b005b3480156101ac57600080fd5b506101c760048036038101906101c2919061112e565b61099b565b005b3480156101d557600080fd5b506101f060048036038101906101eb919061112e565b610b97565b604051610201959493929190611579565b60405180910390f35b34801561021657600080fd5b50610231600480360381019061022c91906115ff565b610ca2565b005b34801561023f57600080fd5b5061025a6004803603810190610255919061112e565b610f30565b005b34801561026857600080fd5b50610271611096565b60405161027e919061163f565b60405180910390f35b60015481565b806002600082815260200190815260200160002060000160009054906101000a900473ffffffffffffffffffffffffffffffffffffffff1673ffffffffffffffffffffffffffffffffffffffff163373ffffffffffffffffffffffffffffffffffffffff1614610332576040517f08c379a0000000000000000000000000000000000000000000000000000000008152600401610329906116a6565b60405180910390fd5b60006002600084815260200190815260200160002090506003600681111561035d5761035c611502565b5b8160040160009054906101000a900460ff16600681111561038157610380611502565b5b146103c1576040517f08c379a00000000000000000000000000000000000000000000000000000000081526004016103b890611712565b60405180910390fd5b60048160040160006101000a81548160ff021916908360068111156103e9576103e8611502565b5b02179055508060010160009054906101000a900473ffffffffffffffffffffffffffffffffffffffff1673ffffffffffffffffffffffffffffffffffffffff166108fc82600301549081150290604051600060405180830381858888f1935050505015801561045c573d6000803e3d6000fd5b50505050565b3360026000600154815260200190815260200160002060000160006101000a81548173ffffffffffffffffffffffffffffffffffffffff021916908373ffffffffffffffffffffffffffffffffffffffff1602179055508060026000600154815260200190815260200160002060020190816104de919061193e565b503460026000600154815260200190815260200160002060030181905550600060026000600154815260200190815260200160002060040160006101000a81548160ff0219169083600681111561053857610537611502565b5b02179055506001600081548092919061055090611a3f565b919050555050565b6060600260008381526020019081526020016000206005018054806020026020016040519081016040528092919081815260200182805480156105f057602002820191906000526020600020905b8160009054906101000a900473ffffffffffffffffffffffffffffffffffffffff1673ffffffffffffffffffffffffffffffffffffffff16815260200190600101908083116105a6575b50505050509050919050565b806002600082815260200190815260200160002060000160009054906101000a900473ffffffffffffffffffffffffffffffffffffffff1673ffffffffffffffffffffffffffffffffffffffff163373ffffffffffffffffffffffffffffffffffffffff16146106a1576040517f08c379a0000000000000000000000000000000000000000000000000000000008152600401610698906116a6565b60405180910390fd5b6000600260008481526020019081526020016000209050600360068111156106cc576106cb611502565b5b8160040160009054906101000a900460ff1660068111156106f0576106ef611502565b5b14610730576040517f08c379a000000000000000000000000000000000000000000000000000000000815260040161072790611ad3565b60405180910390fd5b60058160040160006101000a81548160ff0219169083600681111561075857610757611502565b5b0217905550505050565b60008054906101000a900473ffffffffffffffffffffffffffffffffffffffff1673ffffffffffffffffffffffffffffffffffffffff163373ffffffffffffffffffffffffffffffffffffffff16146107f0576040517f08c379a00000000000000000000000000000000000000000000000000000000081526004016107e790611b3f565b60405180910390fd5b60006002600084815260200190815260200160002090506005600681111561081b5761081a611502565b5b8160040160009054906101000a900460ff16600681111561083f5761083e611502565b5b1461087f576040517f08c379a000000000000000000000000000000000000000000000000000000000815260040161087690611bab565b60405180910390fd5b60068160040160006101000a81548160ff021916908360068111156108a7576108a6611502565b5b02179055508115610926578060000160009054906101000a900473ffffffffffffffffffffffffffffffffffffffff1673ffffffffffffffffffffffffffffffffffffffff166108fc82600301549081150290604051600060405180830381858888f19350505050158015610920573d6000803e3d6000fd5b50610996565b8060010160009054906101000a900473ffffffffffffffffffffffffffffffffffffffff1673ffffffffffffffffffffffffffffffffffffffff166108fc82600301549081150290604051600060405180830381858888f19350505050158015610994573d6000803e3d6000fd5b505b505050565b600060068111156109af576109ae611502565b5b6002600083815260200190815260200160002060040160009054906101000a900460ff1660068111156109e5576109e4611502565b5b14610a25576040517f08c379a0000000000000000000000000000000000000000000000000000000008152600401610a1c90611c17565b60405180910390fd5b60005b6002600083815260200190815260200160002060050180549050811015610b1c573373ffffffffffffffffffffffffffffffffffffffff16600260008481526020019081526020016000206005018281548110610a8857610a87611c37565b5b9060005260206000200160009054906101000a900473ffffffffffffffffffffffffffffffffffffffff1673ffffffffffffffffffffffffffffffffffffffff1603610b09576040517f08c379a0000000000000000000000000000000000000000000000000000000008152600401610b0090611cb2565b60405180910390fd5b8080610b1490611a3f565b915050610a28565b5060026000828152602001908152602001600020600501339080600181540180825580915050600190039060005260206000200160009091909190916101000a81548173ffffffffffffffffffffffffffffffffffffffff021916908373ffffffffffffffffffffffffffffffffffffffff16021790555050565b60026020528060005260406000206000915090508060000160009054906101000a900473ffffffffffffffffffffffffffffffffffffffff16908060010160009054906101000a900473ffffffffffffffffffffffffffffffffffffffff1690806002018054610c0690611761565b80601f0160208091040260200160405190810160405280929190818152602001828054610c3290611761565b8015610c7f5780601f10610c5457610100808354040283529160200191610c7f565b820191906000526020600020905b815481529060010190602001808311610c6257829003601f168201915b5050505050908060030154908060040160009054906101000a900460ff16905085565b816002600082815260200190815260200160002060000160009054906101000a900473ffffffffffffffffffffffffffffffffffffffff1673ffffffffffffffffffffffffffffffffffffffff163373ffffffffffffffffffffffffffffffffffffffff1614610d47576040517f08c379a0000000000000000000000000000000000000000000000000000000008152600401610d3e906116a6565b60405180910390fd5b600060026000858152602001908152602001600020905060006006811115610d7257610d71611502565b5b8160040160009054906101000a900460ff166006811115610d9657610d95611502565b5b14610dd6576040517f08c379a0000000000000000000000000000000000000000000000000000000008152600401610dcd90611d1e565b60405180910390fd5b6000805b8260050180549050811015610e78578473ffffffffffffffffffffffffffffffffffffffff16836005018281548110610e1657610e15611c37565b5b9060005260206000200160009054906101000a900473ffffffffffffffffffffffffffffffffffffffff1673ffffffffffffffffffffffffffffffffffffffff1603610e655760019150610e78565b8080610e7090611a3f565b915050610dda565b5080610eb9576040517f08c379a0000000000000000000000000000000000000000000000000000000008152600401610eb090611d8a565b60405180910390fd5b838260010160006101000a81548173ffffffffffffffffffffffffffffffffffffffff021916908373ffffffffffffffffffffffffffffffffffffffff16021790555060028260040160006101000a81548160ff02191690836006811115610f2457610f23611502565b5b02179055505050505050565b806002600082815260200190815260200160002060010160009054906101000a900473ffffffffffffffffffffffffffffffffffffffff1673ffffffffffffffffffffffffffffffffffffffff163373ffffffffffffffffffffffffffffffffffffffff1614610fd5576040517f08c379a0000000000000000000000000000000000000000000000000000000008152600401610fcc90611df6565b60405180910390fd5b60006002600084815260200190815260200160002090506002600681111561100057610fff611502565b5b8160040160009054906101000a900460ff16600681111561102457611023611502565b5b14611064576040517f08c379a000000000000000000000000000000000000000000000000000000000815260040161105b90611e62565b60405180910390fd5b60038160040160006101000a81548160ff0219169083600681111561108c5761108b611502565b5b0217905550505050565b60008054906101000a900473ffffffffffffffffffffffffffffffffffffffff1681565b6000819050919050565b6110cd816110ba565b82525050565b60006020820190506110e860008301846110c4565b92915050565b6000604051905090565b600080fd5b600080fd5b61110b816110ba565b811461111657600080fd5b50565b60008135905061112881611102565b92915050565b600060208284031215611144576111436110f8565b5b600061115284828501611119565b91505092915050565b600080fd5b600080fd5b6000601f19601f8301169050919050565b7f4e487b7100000000000000000000000000000000000000000000000000000000600052604160045260246000fd5b6111ae82611165565b810181811067ffffffffffffffff821117156111cd576111cc611176565b5b80604052505050565b60006111e06110ee565b90506111ec82826111a5565b919050565b600067ffffffffffffffff82111561120c5761120b611176565b5b61121582611165565b9050602081019050919050565b82818337600083830152505050565b600061124461123f846111f1565b6111d6565b9050828152602081018484840111156112605761125f611160565b5b61126b848285611222565b509392505050565b600082601f8301126112885761128761115b565b5b8135611298848260208601611231565b91505092915050565b6000602082840312156112b7576112b66110f8565b5b600082013567ffffffffffffffff8111156112d5576112d46110fd565b5b6112e184828501611273565b91505092915050565b600081519050919050565b600082825260208201905092915050565b6000819050602082019050919050565b600073ffffffffffffffffffffffffffffffffffffffff82169050919050565b600061134182611316565b9050919050565b61135181611336565b82525050565b60006113638383611348565b60208301905092915050565b6000602082019050919050565b6000611387826112ea565b61139181856112f5565b935061139c83611306565b8060005b838110156113cd5781516113b48882611357565b97506113bf8361136f565b9250506001810190506113a0565b5085935050505092915050565b600060208201905081810360008301526113f4818461137c565b905092915050565b60008115159050919050565b611411816113fc565b811461141c57600080fd5b50565b60008135905061142e81611408565b92915050565b6000806040838503121561144b5761144a6110f8565b5b600061145985828601611119565b925050602061146a8582860161141f565b9150509250929050565b61147d81611336565b82525050565b600081519050919050565b600082825260208201905092915050565b60005b838110156114bd5780820151818401526020810190506114a2565b60008484015250505050565b60006114d482611483565b6114de818561148e565b93506114ee81856020860161149f565b6114f781611165565b840191505092915050565b7f4e487b7100000000000000000000000000000000000000000000000000000000600052602160045260246000fd5b6007811061154257611541611502565b5b50565b600081905061155382611531565b919050565b600061156382611545565b9050919050565b61157381611558565b82525050565b600060a08201905061158e6000830188611474565b61159b6020830187611474565b81810360408301526115ad81866114c9565b90506115bc60608301856110c4565b6115c9608083018461156a565b9695505050505050565b6115dc81611336565b81146115e757600080fd5b50565b6000813590506115f9816115d3565b92915050565b60008060408385031215611616576116156110f8565b5b600061162485828601611119565b9250506020611635858286016115ea565b9150509250929050565b60006020820190506116546000830184611474565b92915050565b7f4e6f7420636c69656e7400000000000000000000000000000000000000000000600082015250565b6000611690600a8361148e565b915061169b8261165a565b602082019050919050565b600060208201905081810360008301526116bf81611683565b9050919050565b7f4e6f742064656c69766572656420796574000000000000000000000000000000600082015250565b60006116fc60118361148e565b9150611707826116c6565b602082019050919050565b6000602082019050818103600083015261172b816116ef565b9050919050565b7f4e487b7100000000000000000000000000000000000000000000000000000000600052602260045260246000fd5b6000600282049050600182168061177957607f821691505b60208210810361178c5761178b611732565b5b50919050565b60008190508160005260206000209050919050565b60006020601f8301049050919050565b600082821b905092915050565b6000600883026117f47fffffffffffffffffffffffffffffffffffffffffffffffffffffffffffffffff826117b7565b6117fe86836117b7565b95508019841693508086168417925050509392505050565b6000819050919050565b600061183b611836611831846110ba565b611816565b6110ba565b9050919050565b6000819050919050565b61185583611820565b61186961186182611842565b8484546117c4565b825550505050565b600090565b61187e611871565b61188981848461184c565b505050565b5b818110156118ad576118a2600082611876565b60018101905061188f565b5050565b601f8211156118f2576118c381611792565b6118cc846117a7565b810160208510156118db578190505b6118ef6118e7856117a7565b83018261188e565b50505b505050565b600082821c905092915050565b6000611915600019846008026118f7565b1980831691505092915050565b600061192e8383611904565b9150826002028217905092915050565b61194782611483565b67ffffffffffffffff8111156119605761195f611176565b5b61196a8254611761565b6119758282856118b1565b600060209050601f8311600181146119a85760008415611996578287015190505b6119a08582611922565b865550611a08565b601f1984166119b686611792565b60005b828110156119de578489015182556001820191506020850194506020810190506119b9565b868310156119fb57848901516119f7601f891682611904565b8355505b6001600288020188555050505b505050505050565b7f4e487b7100000000000000000000000000000000000000000000000000000000600052601160045260246000fd5b6000611a4a826110ba565b91507fffffffffffffffffffffffffffffffffffffffffffffffffffffffffffffffff8203611a7c57611a7b611a10565b5b600182019050919050565b7f43616e206f6e6c7920646973707574652064656c697665726564000000000000600082015250565b6000611abd601a8361148e565b9150611ac882611a87565b602082019050919050565b60006020820190508181036000830152611aec81611ab0565b9050919050565b7f4e6f742061646d696e0000000000000000000000000000000000000000000000600082015250565b6000611b2960098361148e565b9150611b3482611af3565b602082019050919050565b60006020820190508181036000830152611b5881611b1c565b9050919050565b7f4e6f742064697370757465640000000000000000000000000000000000000000600082015250565b6000611b95600c8361148e565b9150611ba082611b5f565b602082019050919050565b60006020820190508181036000830152611bc481611b88565b9050919050565b7f53657276696365206e6f74206f70656e00000000000000000000000000000000600082015250565b6000611c0160108361148e565b9150611c0c82611bcb565b602082019050919050565b60006020820190508181036000830152611c3081611bf4565b9050919050565b7f4e487b7100000000000000000000000000000000000000000000000000000000600052603260045260246000fd5b7f416c7265616479206170706c6965640000000000000000000000000000000000600082015250565b6000611c9c600f8361148e565b9150611ca782611c66565b602082019050919050565b60006020820190508181036000830152611ccb81611c8f565b9050919050565b7f4e6f7420696e2043726561746564207374617475730000000000000000000000600082015250565b6000611d0860158361148e565b9150611d1382611cd2565b602082019050919050565b60006020820190508181036000830152611d3781611cfb565b9050919050565b7f50726f7669646572206e6f7420696e206170706c6963616e7473000000000000600082015250565b6000611d74601a8361148e565b9150611d7f82611d3e565b602082019050919050565b60006020820190508181036000830152611da381611d67565b9050919050565b7f4e6f742070726f76696465720000000000000000000000000000000000000000600082015250565b6000611de0600c8361148e565b9150611deb82611daa565b602082019050919050565b60006020820190508181036000830152611e0f81611dd3565b9050919050565b7f4e6f7420696e2041737369676e65642073746174757300000000000000000000600082015250565b6000611e4c60168361148e565b9150611e5782611e16565b602082019050919050565b60006020820190508181036000830152611e7b81611e3f565b905091905056fea26469706673582212209053227ad0634a473266e85fbb16587f796498a6e16c8c5ce49d90024981baf264736f6c63430008140033",
  "linkReferences": {},
  "deployedLinkReferences": {}
}